:060000000A128A110C280F
:10000800FE00030EF1000A08F2000A128A11032901
:100018000A128A110F28F801F90183010A128A11BC
:100028002F29F600B7287408031D29280130F50088
:10003800730A20280310F50DFF3E031D1E287508BE
:10004800FF3A83160313850508000130F500730A8B
:100058002F280310F50DFF3E031D2D287508831664
:100068000313850408007408031D49280130F500AE
:10007800730A40280310F50DFF3E031D3E2875083E
:10008800FF3A83160313860508000130F500730A4A
:100098004F280310F50DFF3E031D4D2875088316E4
:1000A8000313860408007408031D69280130F5004D
:1000B800730A60280310F50DFF3E031D5E287508BE
:1000C800FF3A83160313870508000130F500730A09
:1000D8006F280310F50DFF3E031D6D287508831664
:1000E8000313870408007408031D89280130F500EC
:1000F800730A80280310F50DFF3E031D7E2875083E
:10010800FF3A83160313880508000130F500730AC7
:100118008F280310F50DFF3E031D8D2875088316E3
:100128000313880408007408031DA9280130F5008A
:10013800730AA0280310F50DFF3E031D9E287508BD
:10014800FF3A83160313890508000130F500730A86
:10015800AF280310F50DFF3E031DAD287508831663
:100168000313890408007608003A03191728013A8E
:1001780003193728033A03195728013A031977282E
:10018800073A03199728C8280800333083169900BE
:1001980098161815EF3098050630F300F401F40AA4
:1001A80002300A128A1115200A128A110730F30048
:1001B800F401F40A02300A128A111520831203137B
:1001C80098171816080075080319080075088400A0
:1001D8000A128A111A210A128A11003A0319080010
:1001E800750884000A128A111A210A128A110A1241
:1001F8008A1151210A128A110130F507EA280B1CCD
:100208000729FE308B050B08F00001300310F00CB5
:10021800FF3E031D0A29701C1329FD308B05720847
:100228008A00710E8300FE0E7E0E090001308A00DE
:100238000408840A82070034553441345234543453
:10024800203457346F3472346B3469346E34673405
:1002580021340A3400340A128A1141210A128A11FF
:100268000A128A116C210A128A11F70077080A12F9
:100278008A1151210A128A1134290A128A115F211E
:100288000A128A110A128A11C9200A128A11013027
:10029800F5000A128A11E7200800F4000C08F300A0
:1002A80004300310F30CFF3E031D5529731C52291B
:1002B8007408990008008316850186018701880162
:1002C8008901831285018601870188018901080057
:1002D8000C08F30005300310F30CFF3E031D6F29D3
:0802E800731C6C291A080800C0
:00000001FF
