:060000000A128A1110280B
:10000800FE00030EFA000408FB000A08FC007F0843
:10001800FD000A128A11C82A0A128A1113288312AB
:100028000313AB01AC01AD01AE0183010A128A11C1
:1000380074291D28FF0000308A007F0882072328C2
:100048000A128A11F92A0A128A11E72BA300C22878
:100058002108031D3D280130A200200A352803107D
:10006800A20DFF3E031D33282208FF3A831685059B
:1000780008000130A200200A43280310A20DFF3E09
:10008800031D412822088316850408002108031D42
:100098005B280130A200200A53280310A20DFF3E5E
:1000A800031D51282208FF3A8316860508000130EF
:1000B800A200200A61280310A20DFF3E031D5F283D
:1000C80022088316860408002108031D79280130B8
:1000D800A200200A71280310A20DFF3E031D6F28FD
:1000E8002208FF3A8316870508000130A200200A7B
:1000F8007F280310A20DFF3E031D7D2822088316CA
:10010800870408002108031D97280130A200200A4F
:100118008F280310A20DFF3E031D8D282208FF3AE9
:100128008316880508000130A200200A9D280310C4
:10013800A20DFF3E031D9B28220883168804080091
:100148002108031DB5280130A200200AAD2803109C
:10015800A20DFF3E031DAB282208FF3A831689052E
:1001680008000130A200200ABB280310A20DFF3EA0
:10017800031DB92822088316890408002308003AB9
:1001880003192C28013A03194A28033A0319682845
:10019800013A03198628073A0319A428D328080026
:1001A800A30062292103031DE5280130A200200ACB
:1001B800DF280310A20DFF3E031DDD282208850459
:1001C80008000130A200200AEB280310A20DFF3E10
:1001D800031DE9282208FF3A850508002103031DAD
:1001E80001290130A200200AFB280310A20DFF3EBE
:1001F800031DF9282208860408000130A200200AFD
:1002080007290310A20DFF3E031D05292208FF3A06
:10021800860508002103031D1D290130A200200ABC
:1002280017290310A20DFF3E031D15292208870474
:1002380008000130A200200A23290310A20DFF3E66
:10024800031D21292208FF3A870508002103031D01
:1002580039290130A200200A33290310A20DFF3EDC
:10026800031D31292208880408000130A200200A51
:100278003F290310A20DFF3E031D3D292208FF3A26
:10028800880508002103031D55290130A200200A12
:100298004F290310A20DFF3E031D4D292208890492
:1002A80008000130A200200A5B290310A20DFF3EBE
:1002B800031D59292208FF3A890508002308003A36
:1002C8000319D628013A0319F228033A03190E290B
:1002D800013A03192A29073A0319462973290800FC
:1002E8000A128A1130220A128A112D03031D9A2933
:1002F80050300A128A119D230A128A11A401033070
:100308000A128A116F230A128A1104308312031306
:10031800A9000C30A8003330A700A70B9129A80B1F
:100328009129A90B912983120313AD012E03031DF3
:10033800BB2949300A128A119D230A128A11A40185
:1003480003300A128A116F230A128A1104308312A9
:100358000313A9000C30A8003330A700A70BB2295B
:10036800A80BB229A90BB22983120313AE010A12F2
:100378008A11C3230A128A11003A031979290A1229
:100388008A11B7230A128A11AA0050302A060319C3
:10039800D12949302A06031D79290230A4000330E7
:1003A8000A128A116F230A128A117929F200F301BD
:1003B8001D2A831203130508F100700AE5290310AA
:1003C800F10CFF3E031DE329182A831203130608C4
:1003D800F100700AF1290310F10CFF3E031DEF290B
:1003E800182A831203130708F100700AFD29031065
:1003F800F10CFF3E031DFB29182A8312031308087A
:10040800F100700A092A0310F10CFF3E031D072AA8
:10041800182A831203130908F100700A152A031019
:10042800F10CFF3E031D132A7108F3000130F30598
:100438002E2A7208003A0319DD29013A0319E9291D
:10044800033A0319F529013A0319012A073A03194E
:100458000D2A2E2A73080800A001A101A10A013063
:100468000A128A112A200A128A110A128A112523CD
:100478000A128A118312A40103300A128A11CE23A8
:100488000A128A1102308312A40003300A128A1158
:10049800CE230A128A1100300A128A11AB230A12DB
:1004A8008A1104308312A0000A128A11DD230A126D
:1004B8008A110130A0000A128A11D7230A128A1160
:1004C8000A128A11EE230A128A110A128A11E323E8
:1004D8000A128A110A128A11EC230A128A110A12C4
:1004E8008A11EA230A128A110A128A115023080073
:1004F800A200A301B52A0508A100200A852A031035
:10050800A10CFF3E031D832AB02A0608A100200A79
:100518008F2A0310A10CFF3E031D8D2AB02A07085D
:10052800A100200A992A0310A10CFF3E031D972A57
:10053800B02A0808A100200AA32A0310A10CFF3E34
:10054800031DA12AB02A0908A100200AAD2A031018
:10055800A10CFF3E031DAB2A2108A3000130A3050F
:10056800C62A2208003A03197F2A013A0319892A60
:10057800033A0319932A013A03199D2A073A0319E2
:10058800A72AC62A230808000B1CD72AFE308B0589
:10059800831203132C080319D72A2C080A128A116C
:1005A8001E200A128A110B08F90001300310F90CF9
:1005B800FF3E031DDA2A791CEE2AFD308B058312D3
:1005C80003132B080319EE2A2B080A128A111E207E
:1005D8000A128A117D08FF007C088A007B088400C3
:1005E8007A0E8300FE0E7E0E090007300A128A1169
:1005F8008D230A128A11F50006300A128A118D23FA
:100608000A128A11F60005300A128A118D230A127D
:100618008A11F70004300A128A118D230A128A11EE
:10062800F8007508031D202B7608031D202B77087A
:100638000319780803190800013083120313AE0068
:10064800080007308312A000A101A10A01300A1294
:100658008A112A200A128A1106308312A000A101E9
:10066800A10A01300A128A112A200A128A110530B9
:100678008312A000A101A10A01300A128A112A20BE
:100688000A128A1104308312A000A101A10A0130C4
:100698000A128A112A200800333083169900981606
:1006A8001815EF30980506308312A000A101A10AA1
:1006B80002300A128A112A200A128A11073083127C
:1006C800A000A101A10A02300A128A112A2083126D
:1006D800981718160800A6002408A00026080A1271
:1006E8008A117C220A128A11A5002503031D842B76
:1006F8002408A000A10126080A128A11D4200800A3
:100708002408A000A101A10A26080A128A11D420EF
:100718000800F4007408F00001300A128A11DA2186
:100728000A128A11003A031D9B2B01300800003081
:100738000800A1000C08A00004300310A00CFF3E24
:10074800031DA12B201C9E2B210899000800831251
:10075800A0002003031DB32B831601170800BF3028
:100768008316810508000C08A00005300310A00CB2
:10077800FF3E031DBA2B201CB72B1A0808000C08D3
:10078800A00005300310A00CFF3E031DC62B200857
:1007980001390800A5002408A000A10125080A12B3
:1007A8008A112A2008002008031908002008AC0034
:1007B80008002008031908002008AB000800FE30D4
:1007C8008B058B1508000130AD0008000B170800D9
:0807D8008B1708000B16080046
:00000001FF
