:060000000A128A110E280D
:10000800FE00030EF1000A08F2007F08F3000A124E
:100018008A11EB290A128A111128F701F801F9014E
:1000280083010A128A116C291828FF0000308A00FF
:100038007F0882071E280A128A113A2AA000BA28C5
:100048007508031D35280130F600740A2D280310A1
:10005800F60DFF3E031D2B287608FF3A831685050B
:1000680008000130F600740A3B280310F60DFF3E25
:10007800031D392876088316850408007508031DB2
:1000880053280130F600740A4B280310F60DFF3E82
:10009800031D49287608FF3A8316860508000130B3
:1000A800F600740A59280310F60DFF3E031D572861
:1000B80076088316860408007508031D7128013028
:1000C800F600740A69280310F60DFF3E031D672821
:1000D8007608FF3A8316870508000130F600740A8F
:1000E80077280310F60DFF3E031D75287608831642
:1000F800870408007508031D8F280130F600740A6C
:1001080087280310F60DFF3E031D85287608FF3A61
:100118008316880508000130F600740A9528031034
:10012800F60DFF3E031D9328760883168804080001
:100138007508031DAD280130F600740AA5280310C0
:10014800F60DFF3E031DA3287608FF3A831689059E
:1001580008000130F600740AB3280310F60DFF3EBC
:10016800031DB12876088316890408002008003A80
:1001780003192428013A03194228033A031960286D
:10018800013A03197E28073A03199C28CB2808004E
:10019800A0005A297503031DDD280130F600740AF2
:1001A800D7280310F60DFF3E031DD52876088504D1
:1001B80008000130F600740AE3280310F60DFF3E2C
:1001C800031DE1287608FF3A850508007503031D1D
:1001D800F9280130F600740AF3280310F60DFF3EE3
:1001E800031DF1287608860408000130F600740A19
:1001F800FF280310F60DFF3E031DFD287608FF3A81
:10020800860508007503031D15290130F600740AD8
:100218000F290310F60DFF3E031D0D2976088704EC
:1002280008000130F600740A1B290310F60DFF3E82
:10023800031D19297608FF3A870508007503031D71
:1002480031290130F600740A2B290310F60DFF3E00
:10025800031D29297608880408000130F600740A6D
:1002680037290310F60DFF3E031D35297608FF3A9E
:10027800880508007503031D4D290130F600740A2E
:1002880047290310F60DFF3E031D4529760889040A
:1002980008000130F600740A53290310F60DFF3EDA
:1002A800031D51297608FF3A890508002008003AFD
:1002B8000319CE28013A0319EA28033A0319062933
:1002C800013A03192229073A03193E296B29080024
:1002D8000A128A11BC210A128A118A29831203136D
:1002E800A10103300A128A112B220A128A11333013
:1002F80083120313A500BB30A400DF30A300A30BB7
:100308008329A40B8329A50B8329F9017908031DE7
:1003180072290B3083120313A5002630A4005D3028
:10032800A300A30B9529A40B9529A50B9529831246
:100338000313A10103300A128A112B220A128A110F
:100348000B3083120313A5002630A4005D30A300F0
:10035800A30BAC29A40BAC29A50BAC29831203135E
:10036800A10103300A128A1118220A128A118A2955
:10037800F401F501F50A01300A128A1122200A1245
:100388008A118312A10103300A128A1122220A1249
:100398008A118312A10103300A128A1118220A1243
:1003A8008A1100300A128A110D220A128A110130AC
:1003B800F4000A128A1134220A128A110A128A11C6
:1003C8003F220A128A110A128A113D2208000B1CC8
:1003D800EF29FE308B050B08F00001300310F00CFC
:1003E800FF3E031DF229701C042AFD308B05770897
:1003F8000319042A77080A128A1119200A128A1185
:100408007308FF0072088A00710E8300FE0E7E0ECC
:100418000900F4007403031D142A83160117080049
:10042800BF30831681050800A2002108F400F501F9
:10043800F50A22080A128A11CC200800A200210815
:10044800F400F50122080A128A1122200800A200ED
:100458002108F400F50122080A128A11CC200800AC
:100468007408031908007408F70008000130F9003F
:0A04780008008B1708000B1608009F
:00000001FF
