:100000000A128A11EE2FFF1B0D2883137F18831706
:100010000008840A0319FF0A080000308A00040857
:10002000840A82070034543472346134663466348E
:10003000693463342034533479347334743465341C
:100040006D343A34003443346134723473343A34A6
:0800500020342534643400342F
:100332000800F001F00AF10101300A128A11B92510
:10034200080064008001840A0406031900340406CC
:10035200A329F001F00AF101F10A01300A128A110F
:10036200B92508000A128A11BC210A128A110A123E
:100372008A11ED2308008316850186018701880111
:10038200890183128501860187018801890108009C
:10039200F71F08007609F8007709F900F80A03192F
:1003A200F90A7808F6007908F70008002F08FD001E
:1003B2007D0884000A128A110D200A128A11003A5D
:1003C2000319F1292D08A0002E08A1007D30A200FA
:1003D2003008A3000A128A1121270A128A11D92988
:1003E200AD01AE0108003330B6003108B70000306D
:1003F200B800B901BA01C001C1013730AD00003007
:10040200AE003208AF003630B0000A128A11D7218E
:1004120039083107B50035088400831380010800CC
:100422000230F000F101F10A01300A128A11B925F5
:100432000A128A110630F5003030F400F40B1F2A3C
:10044200F50B1F2A00000230F000F10101300A1200
:100452008A11B9250A128A110630F5003030F400EB
:10046200F40B312AF50B312A00000800FA017A0850
:100472007807840079080318790A83120313FF00AE
:100482000A128A1103200A128A11003A031908007B
:100492007A087807840079080318790AFF000A129B
:1004A2008A1103200A128A110A128A1181240A125D
:1004B2008A110130FA07382AF501F31F672AF20977
:1004C200F309F20A0319F30A0130F500F11F6E2A4B
:1004D200F009F109F00A0319F10A7008710403190D
:1004E200992A0130F400F11B802A01300310F00D2B
:1004F200F10DFF3E031D772A0130F407742A7108BB
:100502007302031D862A70087202031C8E2A700869
:10051200F2027108031CF303F30201300310F10C21
:10052200F00CFF3E031D8F2A0130F402031D802AC6
:1005320075080319A12AF209F309F20A0319F30A49
:100542007308F1007208F0000800F501F11FB02AEB
:10055200F009F109F00A0319F10A0130F500F31F5D
:10056200B92AF209F309F20A0319F30A0130F5066E
:10057200F601F701700871040319EE2A0130F40044
:10058200F11BCD2A01300310F00DF10DFF3E031DCA
:10059200C42A0130F407C12A01300310F60DF70D09
:1005A200FF3E031DCE2A71087302031DDA2A70086A
:1005B2007202031CE32A7008F2027108031CF3039F
:1005C200F302761401300310F10CF00CFF3E031D10
:1005D200E42A0130F402031DCD2A75080319F62A14
:1005E200F609F709F60A0319F70A7708F1007608FF
:1005F200F00008000A128A11B3210A128A1101308E
:10060200F8008030F9000A128A1137220A128A1180
:100612002A30D5000030D600C0300A128A111D25BA
:100622000A128A11453083120313B1001130B2004D
:100632002A30B3000030B4000A128A11F4210A12DF
:100642008A114530F8000030F9000A128A11372267
:100652000A128A11C0300A128A111D250A128A1141
:10066200013083120313D5070318D60A0030D607C8
:100672004530B1001130B2005608B4005508B3003D
:100682000A128A11F4210A128A114530F800003048
:10069200F9000A128A1137220A128A1106308312CD
:1006A2000313C4001330C300AD30C200C20B572B7A
:1006B200C30B572BC40B572B2B2B72087304031934
:1006C200662B72087304031D6B2B70080A128A11C1
:1006D200992108007208093EF40073080318013ECC
:1006E200003EF500740884008317751C831300080C
:1006F200F600840A0008F700760877040319B12B84
:100702007208093EF40073080318013E003EF5002A
:10071200740884008317751C83130008F600840A8A
:100722000008F7007208023EF80073080318013E41
:10073200003EF900780884008317791C83130008AF
:10074200FA00840A0008FB007B08803AFC00770864
:10075200803A7C02031DAF2B76087A020318080048
:10076200720884008317731C83130008F400840A40
:100772000008F5007208023EF60073080318013EF5
:10078200003EF700760884008317771C8313000865
:100792007407F9007508F8000318F80A801BF803BB
:1007A2007808FA007908840083177A1C831370088A
:1007B20080007208023EF40073080318013E003EF6
:1007C200F500740884008317751C831301308007B9
:1007D200840A0318800A0800F001F10103300A12AA
:1007E2008A116D260A128A11F001F00AF101033012
:1007F2000A128A116D260A128A110230F000F101E2
:1008020003300A128A116D260A128A110330F0008F
:10081200F10103300A128A116D260A128A1104307C
:10082200F000F10103300A128A116D260A128A11B0
:100832000530F000F10103300A128A116D260A1206
:100842008A110630F000F10103300A128A116D2676
:100852000A128A110730F000F10103300A128A11DC
:100862006D260A128A11F001F00AF10101300A1212
:100872008A116D260A128A110230F000F10101304C
:100882000A128A116D260A128A116830F900E430C0
:10089200F800F80B4A2CF90B4A2C000038300A12E7
:1008A2008A111D250A128A110330F9009730F800C7
:1008B200F80B592CF90B592C5E2C0C300A128A11A8
:1008C2001D250A128A110330F9009730F800F80B3F
:1008D200682CF90B682C6D2C01300A128A111D2527
:1008E2000A128A110630F9003030F800F80B772C22
:1008F200F90B772C000006300A128A111D25080018
:10090200F7000A128A11AA210A128A117708F10045
:100912000130F105F00103300A128A11B9250A12D9
:100922008A117708F6000310760CF1000130F10508
:10093200F001F00A03300A128A11B9250A128A114B
:100942007708F60002300310F60CFF3E031DA42CBC
:100952007608F1000130F1050230F00003300A128E
:100962008A11B9250A128A117708F600033003109A
:10097200F60CFF3E031DB82C7608F1000130F1059C
:100982000330F00003300A128A11B9250A128A11C3
:100992007708F60004300310F60CFF3E031DCC2C42
:1009A2007608F1000130F1050430F00003300A123C
:1009B2008A11B9250A128A117708F6000530031048
:1009C200F60CFF3E031DE02C7608F1000130F10524
:1009D2000530F00003300A128A11B9250A128A1171
:1009E2007708F60006300310F60CFF3E031DF42CC8
:1009F2007608F1000130F1050630F00003300A12EA
:100A02008A11B9250A128A117708F60007300310F5
:100A1200F60CFF3E031D082D7608F1000130F105AA
:100A22000730F00003300A128A11B9250A128A111E
:100A32000A128A1111220800F7000A128A119A2159
:100A42000A128A117708F1000130F105F001033032
:100A52000A128A11B9250A128A117708F6000310C0
:100A6200760CF1000130F105F001F00A03300A12B0
:100A72008A11B9250A128A117708F600023003108A
:100A8200F60CFF3E031D402D7608F1000130F10502
:100A92000230F00003300A128A11B9250A128A11B3
:100AA2007708F60003300310F60CFF3E031D542DA9
:100AB2007608F1000130F1050330F00003300A122C
:100AC2008A11B9250A128A117708F6000430031038
:100AD200F60CFF3E031D682D7608F1000130F1058A
:100AE2000430F00003300A128A11B9250A128A1161
:100AF2007708F60005300310F60CFF3E031D7C2D2F
:100B02007608F1000130F1050530F00003300A12D9
:100B12008A11B9250A128A117708F60006300310E5
:100B2200F60CFF3E031D902D7608F1000130F10511
:100B32000630F00003300A128A11B9250A128A110E
:100B42007708F60007300310F60CFF3E031DA42DB4
:100B52007608F1000130F1050730F00003300A1287
:100B62008A11B9250A128A110A128A111122080061
:100B7200F3005B2E7103031DCC2D0130F200700ACD
:100B8200C42D0310F20DFF3E031DC22D7208831205
:100B92000313850408000130F200700AD22D0310FD
:100BA200F20DFF3E031DD02D7208FF3A831203138C
:100BB200850508007103031DEC2D0130F200700A57
:100BC200E42D0310F20DFF3E031DE22D7208831285
:100BD2000313860408000130F200700AF22D03109C
:100BE200F20DFF3E031DF02D7208FF3A831203132C
:100BF200860508007103031D0C2E0130F200700AF5
:100C0200042E0310F20DFF3E031D022E7208831202
:100C12000313870408000130F200700A122E031039
:100C2200F20DFF3E031D102E7208FF3A83120313CA
:100C3200870508007103031D2C2E0130F200700A93
:100C4200242E0310F20DFF3E031D222E7208831282
:100C52000313880408000130F200700A322E0310D8
:100C6200F20DFF3E031D302E7208FF3A831203136A
:100C7200880508007103031D4C2E0130F200700A32
:100C8200442E0310F20DFF3E031D422E7208831202
:100C92000313890408000130F200700A522E031077
:100CA200F20DFF3E031D502E7208FF3A831203130A
:100CB200890508007308003A0319BB2D013A03198C
:100CC200DB2D033A0319FB2D013A03191B2E073AB8
:100CD20003193B2E6C2E0800F3000F2F7108031D21
:100CE200812E0130F200700A782E0310F20DFF3EC1
:100CF200031D762E7208FF3A83160313850508003A
:100D02000130F200700A872E0310F20DFF3E031D20
:100D1200852E720883160313850408007108031DCB
:100D2200A12E0130F200700A982E0310F20DFF3E40
:100D3200031D962E7208FF3A8316031386050800D8
:100D42000130F200700AA72E0310F20DFF3E031DC0
:100D5200A52E720883160313860408007108031D6A
:100D6200C12E0130F200700AB82E0310F20DFF3EC0
:100D7200031DB62E7208FF3A831603138705080077
:100D82000130F200700AC72E0310F20DFF3E031D60
:100D9200C52E720883160313870408007108031D09
:100DA200E12E0130F200700AD82E0310F20DFF3E40
:100DB200031DD62E7208FF3A831603138805080016
:100DC2000130F200700AE72E0310F20DFF3E031D00
:100DD200E52E720883160313880408007108031DA8
:100DE200012F0130F200700AF82E0310F20DFF3EBF
:100DF200031DF62E7208FF3A8316031389050800B5
:100E02000130F200700A072F0310F20DFF3E031D9E
:100E1200052F720883160313890408007308003A29
:100E220003196F2E013A03198F2E033A0319AF2EBD
:100E3200013A0319CF2E073A0319EF2E202F08008B
:100E420022088400000884000A128A110D200A1266
:100E52008A11253A031DD52F22088400013080070C
:100E6200D701D8010030DB00FF30D900FF30DA00B3
:100E7200220884000008A700270884000A128A11A9
:100E82000D200A128A11643A0319512F270884008F
:100E92000A128A110D200A128A11693A031DCE2FF5
:100EA2002308840083130008A4000230800724086A
:100EB20084000008A800840A0008A900220884000F
:100EC2002708013E80002030AC00A91F6A2F0130A4
:100ED2006B2F0030A600702F2C080319A42F0130AD
:100EE200AC022C08A03E84000A30F0000030F10071
:100EF2002908F3002808F2000A128A115D220A1258
:100F02008A117108F7007008F6000A128A11C921C5
:100F12000A128A117608303E831380000A30F000EC
:100F22000030F1002908F3002808F2000A128A11A1
:100F3200A6220A128A117108A9007008A8002808BE
:100F42002904031D6D2F2C080319B12F260803193C
:100F5200B12F0130AC022C08A03E84002D3080005D
:100F620020302C06031908002C08A03E84008313AD
:100F72000008A400A5012408F0002508F1002008BB
:100F8200F2002108F3000A128A115E230A128A1162
:100F9200013083120313AC07B12F8312031322080B
:100FA20084000130800708002208840000088400C1
:100FB2000A128A110D200A128A11A400A50124081E
:100FC200F0002508F1002008F2002108F3000A12BF
:100FD2008A115E230A128A11CE2F83120313D701BC
:100FE200D801D901DA01DB018313A0308400C030BB
:0E0FF2000A128A11A22183010A128A11FB2A17
:00000001FF
