:060000000A128A1110280B
:10000800FE00030EFA000408FB000A08FC007F0843
:10001800FD000A128A118B2A0A128A1113288312E8
:100028000313AA01AB01AC01AD0183010A128A11C5
:10003800162A1D28FF0000308A007F08820723281F
:100048000A128A11BC2A0A128A11662BA300C22836
:100058002108031D3D280130A200200A352803107D
:10006800A20DFF3E031D33282208FF3A831685059B
:1000780008000130A200200A43280310A20DFF3E09
:10008800031D412822088316850408002108031D42
:100098005B280130A200200A53280310A20DFF3E5E
:1000A800031D51282208FF3A8316860508000130EF
:1000B800A200200A61280310A20DFF3E031D5F283D
:1000C80022088316860408002108031D79280130B8
:1000D800A200200A71280310A20DFF3E031D6F28FD
:1000E8002208FF3A8316870508000130A200200A7B
:1000F8007F280310A20DFF3E031D7D2822088316CA
:10010800870408002108031D97280130A200200A4F
:100118008F280310A20DFF3E031D8D282208FF3AE9
:100128008316880508000130A200200A9D280310C4
:10013800A20DFF3E031D9B28220883168804080091
:100148002108031DB5280130A200200AAD2803109C
:10015800A20DFF3E031DAB282208FF3A831689052E
:1001680008000130A200200ABB280310A20DFF3EA0
:10017800031DB92822088316890408002308003AB9
:1001880003192C28013A03194A28033A0319682845
:10019800013A03198628073A0319A428D328080026
:1001A800A30062292103031DE5280130A200200ACB
:1001B800DF280310A20DFF3E031DDD282208850459
:1001C80008000130A200200AEB280310A20DFF3E10
:1001D800031DE9282208FF3A850508002103031DAD
:1001E80001290130A200200AFB280310A20DFF3EBE
:1001F800031DF9282208860408000130A200200AFD
:1002080007290310A20DFF3E031D05292208FF3A06
:10021800860508002103031D1D290130A200200ABC
:1002280017290310A20DFF3E031D15292208870474
:1002380008000130A200200A23290310A20DFF3E66
:10024800031D21292208FF3A870508002103031D01
:1002580039290130A200200A33290310A20DFF3EDC
:10026800031D31292208880408000130A200200A51
:100278003F290310A20DFF3E031D3D292208FF3A26
:10028800880508002103031D55290130A200200A12
:100298004F290310A20DFF3E031D4D292208890492
:1002A80008000130A200200A5B290310A20DFF3EBE
:1002B800031D59292208FF3A890508002308003A36
:1002C8000319D628013A0319F228033A03190E290B
:1002D800013A03192A29073A0319462973290800FC
:1002E800F200F301B729831203130508F100700A1D
:1002F8007F290310F10CFF3E031D7D29B2298312CB
:1003080003130608F100700A8B290310F10CFF3E55
:10031800031D8929B229831203130708F100700A03
:1003280097290310F10CFF3E031D9529B22983126A
:1003380003130808F100700AA3290310F10CFF3E0B
:10034800031DA129B229831203130908F100700AB9
:10035800AF290310F10CFF3E031DAD297108F3000E
:100368000130F305C8297208003A03197729013AC0
:1003780003198329033A03198F29013A03199B2981
:10038800073A0319A729C82973080800A200A3017E
:10039800032A0508A100200AD3290310A10CFF3E57
:1003A800031DD129FE290608A100200ADD29031012
:1003B800A10CFF3E031DDB29FE290708A100200A26
:1003C800E7290310A10CFF3E031DE529FE290808B3
:1003D800A100200AF1290310A10CFF3E031DEF29FB
:1003E800FE290908A100200AFB290310A10CFF3EE1
:1003F800031DF9292108A3000130A305142A2208A6
:10040800003A0319CD29013A0319D729033A0319E8
:10041800E129013A0319EB29073A0319F529142AA6
:10042800230808000A128A1152220A128A112C0380
:10043800031D362AA40103300A128A1113230A1253
:100448008A11043083120313A9000C30A80033303A
:10045800A700A70B2D2AA80B2D2AA90B2D2A83123A
:100468000313AC012D03031D1B2AA40103300A1238
:100478008A1113230A128A11043083120313A90064
:100488000C30A8003330A700A70B482AA80B482A2D
:10049800A90B482A83120313AD011B2AA001A1014D
:1004A800A10A01300A128A112A200A128A110A1294
:1004B8008A11E8220A128A118312A40103300A124F
:1004C8008A114D230A128A1100300A128A11412317
:1004D8000A128A1104308312A0000A128A115C23BE
:1004E8000A128A110130A0000A128A1156230A1230
:1004F8008A110A128A116B230A128A110A128A11A6
:1005080062230A128A110A128A11692308000B1C35
:100518009A2AFE308B05831203132B0803199A2A93
:100528002B080A128A111E200A128A110B08F900D8
:1005380001300310F90CFF3E031D9D2A791CB12AD6
:10054800FD308B05831203132A080319B12A2A08E0
:100558000A128A111E200A128A117D08FF007C08DF
:100568008A007B0884007A0E8300FE0E7E0E090046
:1005780007300A128A1131230A128A11F50006304F
:100588000A128A1131230A128A11F60005300A125A
:100598008A1131230A128A11F70004300A128A11CB
:1005A80031230A128A11F8007508031DE32A760818
:1005B800031DE32A77080319780803190800013096
:1005C80083120313AD00080007308312A000A101B5
:1005D800A10A01300A128A112A200A128A11063049
:1005E8008312A000A101A10A01300A128A112A204F
:1005F8000A128A1105308312A000A101A10A013054
:100608000A128A112A200A128A1104308312A000C1
:10061800A101A10A01300A128A112A200800A600A5
:100628002408A00026080A128A11CA210A128A116F
:10063800A5002503031D282B2408A000A1012608D6
:100648000A128A11D42008002408A000A101A10AD6
:1006580026080A128A11D4200800F4007408F00051
:1006680001300A128A1174210A128A11003A031DF4
:100678003F2B01300800003008008312A00020033F
:10068800031D492B831601170800BF308316810507
:100698000800A5002408A000A10125080A128A1153
:1006A8002A2008002008031908002008AB000800C9
:1006B8002008031908002008AA000800FE308B054E
:1006C8008B1508000130AC0008008B1708000B16CA
:0206D800080018
:00000001FF
