:100000000A128A11FC2F00308A000408840A820731
:1000100000345534413452345434203457346F341E
:1000200072346B3469346E34673421340A340034EA
:100D8A000C08F00005300310F00CFF3E031DC82EBE
:100D9A00701CC52E1A080800831685018601870172
:100DAA0088018901831285018601870188018901E9
:100DBA000800F1000C08F00004300310F00CFF3EAC
:100DCA00031DE22E701CDF2E7108990008000A121A
:100DDA008A11D1260A128A110A128A112A270A129C
:100DEA008A110130F2000A128A110E2708000A122B
:100DFA008A11EC260A128A110A128A11C5260A12C7
:100E0A008A11F40074080A128A11DE260A128A115B
:100E1A00012F720803190800720884000A128A1145
:100E2A0003200A128A11003A031908007208840082
:100E3A000A128A1103200A128A110A128A11DE265C
:100E4A000A128A110130F207112F333083169900E2
:100E5A0098161815EF3098050630F000F101F10ADE
:100E6A0002300A128A1148270A128A110730F00042
:100E7A00F101F10A02300A128A1148278312031378
:100E8A00981718160800F300EA2F7108031D5C2F43
:100E9A000130F200700A532F0310F20DFF3E031DBA
:100EAA00512F7208FF3A8316031385050800013093
:100EBA00F200700A622F0310F20DFF3E031D602F2D
:100ECA00720883160313850408007108031D7C2F1A
:100EDA000130F200700A732F0310F20DFF3E031D5A
:100EEA00712F7208FF3A8316031386050800013032
:100EFA00F200700A822F0310F20DFF3E031D802FAD
:100F0A00720883160313860408007108031D9C2FB8
:100F1A000130F200700A932F0310F20DFF3E031DF9
:100F2A00912F7208FF3A83160313870508000130D0
:100F3A00F200700AA22F0310F20DFF3E031DA02F2C
:100F4A00720883160313870408007108031DBC2F57
:100F5A000130F200700AB32F0310F20DFF3E031D99
:100F6A00B12F7208FF3A831603138805080001306F
:100F7A00F200700AC22F0310F20DFF3E031DC02FAC
:100F8A00720883160313880408007108031DDC2FF6
:100F9A000130F200700AD32F0310F20DFF3E031D39
:100FAA00D12F7208FF3A831603138905080001300E
:100FBA00F200700AE22F0310F20DFF3E031DE02F2C
:100FCA00720883160313890408007308003A031988
:100FDA004A2F013A03196A2F033A03198A2F013A51
:100FEA000319AA2F073A0319CA2FFB2F08008301F6
:060FFA000A128A11FC2E10
:00000001FF
