:060000000A128A1110280B
:10000800FE00030EFA000408FB000A08FC007F0843
:10001800FD000A128A11A82B0A128A1113288312CA
:100028000313AB01AC01AD01AE0183010A128A11C1
:10003800D92B1D28FF0000308A007F08820723285B
:100048000A128A11352C0A128A112C2DA300C228F3
:100058002108031D3D280130A200200A352803107D
:10006800A20DFF3E031D33282208FF3A831685059B
:1000780008000130A200200A43280310A20DFF3E09
:10008800031D412822088316850408002108031D42
:100098005B280130A200200A53280310A20DFF3E5E
:1000A800031D51282208FF3A8316860508000130EF
:1000B800A200200A61280310A20DFF3E031D5F283D
:1000C80022088316860408002108031D79280130B8
:1000D800A200200A71280310A20DFF3E031D6F28FD
:1000E8002208FF3A8316870508000130A200200A7B
:1000F8007F280310A20DFF3E031D7D2822088316CA
:10010800870408002108031D97280130A200200A4F
:100118008F280310A20DFF3E031D8D282208FF3AE9
:100128008316880508000130A200200A9D280310C4
:10013800A20DFF3E031D9B28220883168804080091
:100148002108031DB5280130A200200AAD2803109C
:10015800A20DFF3E031DAB282208FF3A831689052E
:1001680008000130A200200ABB280310A20DFF3EA0
:10017800031DB92822088316890408002308003AB9
:1001880003192C28013A03194A28033A0319682845
:10019800013A03198628073A0319A428D328080026
:1001A8008312A001A10103300A128A112A200A121F
:1001B8008A118312A001A00AA10103300A128A1130
:1001C8002A200A128A1102308312A000A1010330EA
:1001D8000A128A112A200A128A1103308312A000F7
:1001E800A10103300A128A112A200A128A11043046
:1001F8008312A000A10103300A128A112A200A12D0
:100208008A1105308312A000A10103300A128A1155
:100218002A200A128A1106308312A000A101033095
:100228000A128A112A200A128A1107308312A000A2
:10023800A10103300A128A112A200A128A11831294
:10024800A001A00AA10101300A128A112A200A126B
:100258008A1102308312A000A10101300A128A110A
:100268002A200A128A11683083120313A900E33086
:10027800A800A80B3D29A90B3D29422938300A12AC
:100288008A1118220A128A11033083120313A90053
:100298009730A800A80B4E29A90B4E290C300A123A
:1002A8008A1118220A128A11033083120313A90033
:1002B8009730A800A80B5E29A90B5E2901300A1205
:1002C8008A1118220A128A11063083120313A90010
:1002D8002F30A800A80B6E29A90B6E2973290630A8
:1002E8000A128A1118220800A300062A2103031DF6
:1002F80089290130A200200A83290310A20DFF3E9C
:10030800031D81292208850408000130A200200A63
:100318008F290310A20DFF3E031D8D292208FF3AE5
:10032800850508002103031DA5290130A200200A24
:100338009F290310A20DFF3E031D9D292208860454
:1003480008000130A200200AAB290310A20DFF3ECD
:10035800031DA9292208FF3A860508002103031D69
:10036800C1290130A200200ABB290310A20DFF3EBB
:10037800031DB9292208870408000130A200200AB9
:10038800C7290310A20DFF3E031DC5292208FF3A05
:10039800870508002103031DDD290130A200200A7A
:1003A800D7290310A20DFF3E031DD5292208880472
:1003B80008000130A200200AE3290310A20DFF3E25
:1003C800031DE1292208FF3A880508002103031DBF
:1003D800F9290130A200200AF3290310A20DFF3EDB
:1003E800031DF1292208890408000130A200200A0F
:1003F800FF290310A20DFF3E031DFD292208FF3A25
:10040800890508002308003A03197A29013A0319D3
:100418009629033A0319B229013A0319CE29073A52
:100428000319EA29172A080083120313A7000A12DE
:100438008A1114250A128A112708A1000130A10582
:10044800A00103300A128A1178210A128A1127089A
:10045800A6000310260CA1000130A105A001A00AE6
:1004680003300A128A1178210A128A112708A60075
:1004780002300310A60CFF3E031D3D2A2608A100EA
:100488000130A1050230A00003300A128A11782138
:100498000A128A112708A60003300310A60CFF3E93
:1004A800031D512A2608A1000130A1050330A00030
:1004B80003300A128A1178210A128A112708A60025
:1004C80004300310A60CFF3E031D652A2608A10070
:1004D8000130A1050430A00003300A128A117821E6
:1004E8000A128A112708A60005300310A60CFF3E41
:1004F800031D792A2608A1000130A1050530A000B6
:1005080003300A128A1178210A128A112708A600D4
:1005180006300310A60CFF3E031D8D2A2608A100F5
:100528000130A1050630A00003300A128A11782193
:100538000A128A112708A60007300310A60CFF3EEE
:10054800031DA12A2608A1000130A1050730A0003B
:1005580003300A128A1178210A128A110A128A11A2
:1005680009240800A7000A128A110B250A128A1109
:100578002708A1000130A105A00103300A128A1141
:1005880078210A128A112708A6000310260CA10058
:100598000130A105A001A00A03300A128A117821AE
:1005A8000A128A112708A60002300310A60CFF3E83
:1005B800031DD92A2608A1000130A1050230A00098
:1005C80003300A128A1178210A128A112708A60014
:1005D80003300310A60CFF3E031DED2A2608A100D8
:1005E8000130A1050330A00003300A128A117821D6
:1005F8000A128A112708A60004300310A60CFF3E31
:10060800031D012B2608A1000130A1050430A0001C
:1006180003300A128A1178210A128A112708A600C3
:1006280005300310A60CFF3E031D152B2608A1005C
:100638000130A1050530A00003300A128A11782183
:100648000A128A112708A60006300310A60CFF3EDE
:10065800031D292B2608A1000130A1050630A000A2
:1006680003300A128A1178210A128A112708A60073
:1006780007300310A60CFF3E031D3D2B2608A100E2
:100688000130A1050730A00003300A128A11782131
:100698000A128A110A128A1109240800F200F301C9
:1006A800952B831203130508F100700A5D2B0310C4
:1006B800F10CFF3E031D5B2B902B831203130608DE
:1006C800F100700A692B0310F10CFF3E031D672B24
:1006D800902B831203130708F100700A752B03107F
:1006E800F10CFF3E031D732B902B83120313080894
:1006F800F100700A812B0310F10CFF3E031D7F2BC4
:10070800902B831203130908F100700A8D2B031034
:10071800F10CFF3E031D8B2B7108F3000130F3052C
:10072800A62B7208003A0319552B013A0319612BBD
:10073800033A03196D2B013A0319792B073A031968
:10074800852BA62B730808000B1CB72BFE308B05D6
:10075800831203132C080319B72B2C080A128A11C9
:100768001E200A128A110B08F90001300310F90C37
:10077800FF3E031DBA2B791CCE2BFD308B0583124F
:1007880003132B080319CE2B2B080A128A111E20DB
:100798000A128A117D08FF007C088A007B08840001
:1007A8007A0E8300FE0E7E0E09000A128A11612459
:1007B8000A128A11831203132D03031DEA2B5030EA
:1007C8000A128A11E6240A128A11AD012E03031DAA
:1007D800F42B49300A128A11E6240A128A11AE0152
:1007E8000A128A1100250A128A11003A0319DE2B0F
:1007F8000A128A11F4240A128A11AA002A080A1273
:100808008A11B6220A128A11DE2B0230A000A10139
:10081800A10A01300A128A1178210A128A110630B7
:1008280083120313A5002F30A400A40B192CA50BC9
:10083800192C1E2C023083120313A000A1010130D1
:100848000A128A1178210A128A11063083120313B8
:10085800A5002F30A400A40B2F2CA50B2F2C342C73
:10086800080007300A128A11D6240A128A11F500E4
:1008780006300A128A11D6240A128A11F6000530A7
:100888000A128A11D6240A128A11F70004300A12B1
:100898008A11D6240A128A11F8007508031D5C2CE7
:1008A8007608031D5C2C77080319780803190800DB
:1008B800013083120313AE0008000A128A118C2437
:1008C8000A128A110A128A11D4200A128A110A12EB
:1008D8008A11B6240A128A110430A0000A128A1159
:1008E80022250A128A110130A0000A128A111C2539
:1008F8000A128A110A128A1131250A128A110A1259
:100908008A1128250A128A110A128A112F2508002D
:100918000730A000A101A10A01300A128A112A2079
:100928000A128A1106308312A000A101A10A01301F
:100938000A128A112A200A128A1105308312A0008D
:10094800A101A10A01300A128A112A200A128A1169
:1009580004308312A000A101A10A01300A128A11F1
:100968002A200800333083160313990098161815A7
:10097800EF30980506308312A000A101A10A0230C9
:100988000A128A112A200A128A1107308312A0003B
:10099800A101A10A02300A128A112A20831298178B
:1009A80018160800F4007408F00001300A128A11C1
:1009B80052230A128A11003A031DE42C0130080060
:1009C80000300800A1000C08A00004300310A00C9F
:1009D800FF3E031DEA2C201CE72C21089900080083
:1009E8000C08A00005300310A00CFF3E031DF72CD7
:1009F800201CF42C1A0808000C08A000053003106D
:100A0800A00CFF3E031D032D200801390800A0019A
:100A1800A00AA101A10A01300A128A11782108004E
:100A2800A001A00AA10101300A128A117821080048
:100A38002008031908002008AC0008002008031942
:100A480008002008AB000800FE308B058B15080055
:0E0A58000130AD0008008B1708000B160800D7
:00000001FF
