:060000000A128A1110280B
:10000800FE00030EF9000408FA000A08FB007F0846
:10001800FC000A128A11A02A0A128A111328FD016B
:1000280083120313A70183010A128A11BA2A1B2813
:10003800FF0000308A007F08820721280A128A11EF
:100048003B2AA300BD282108031D38280130A2003F
:10005800200A30280310A20DFF3E031D2E28220877
:10006800FF3A8316850508000130A200200A3E28C1
:100078000310A20DFF3E031D3C28220883168504A9
:1000880008002108031D56280130A200200A4E2826
:100098000310A20DFF3E031D4C282208FF3A8316C9
:1000A800860508000130A200200A5C280310A20D72
:1000B800FF3E031D5A2822088316860408002108DB
:1000C800031D74280130A200200A6C280310A20D19
:1000D800FF3E031D6A282208FF3A83168705080099
:1000E8000130A200200A7A280310A20DFF3E031D4A
:1000F800782822088316870408002108031D9228FF
:100108000130A200200A8A280310A20DFF3E031D19
:1001180088282208FF3A8316880508000130A200C3
:10012800200A98280310A20DFF3E031D96282208D6
:100138008316880408002108031DB0280130A20096
:10014800200AA8280310A20DFF3E031DA628220896
:10015800FF3A8316890508000130A200200AB62854
:100168000310A20DFF3E031DB4282208831689043C
:1001780008002308003A03192728013A03194528DB
:10018800033A03196328013A03198128073A031926
:100198009F28CE280800A3005D292103031DE0281D
:1001A8000130A200200ADA280310A20DFF3E031D29
:1001B800D8282208850408000130A200200AE62871
:1001C8000310A20DFF3E031DE4282208FF3A85050F
:1001D80008002103031DFC280130A200200AF6288C
:1001E8000310A20DFF3E031DF42822088604080010
:1001F8000130A200200A02290310A20DFF3E031DB0
:1002080000292208FF3A860508002103031D182942
:100218000130A200200A12290310A20DFF3E031D7F
:1002280010292208870408000130A200200A1E298C
:100238000310A20DFF3E031D1C292208FF3A870563
:1002480008002103031D34290130A200200A2E29A9
:100258000310A20DFF3E031D2C2922088804080064
:100268000130A200200A3A290310A20DFF3E031D07
:1002780038292208FF3A880508002103031D502960
:100288000130A200200A4A290310A20DFF3E031DD7
:1002980048292208890408000130A200200A5629AA
:1002A8000310A20DFF3E031D54292208FF3A8905B9
:1002B80008002308003A0319D128013A0319ED2848
:1002C800033A03190929013A03192529073A031999
:1002D80041296E290800F200F301B22983120313A1
:1002E8000508F100700A7A290310F10CFF3E031D7E
:1002F8007829AD29831203130608F100700A8629AC
:100308000310F10CFF3E031D8429AD29831203134A
:100318000708F100700A92290310F10CFF3E031D33
:100328009029AD29831203130808F100700A9E2949
:100338000310F10CFF3E031D9C29AD298312031302
:100348000908F100700AAA290310F10CFF3E031DE9
:10035800A8297108F3000130F305C3297208003A8F
:1003680003197229013A03197E29033A03198A29C4
:10037800013A03199629073A0319A229C3297308D0
:100388000800A200A301FE290508A100200ACE2921
:100398000310A10CFF3E031DCC29F9290608A10072
:1003A800200AD8290310A10CFF3E031DD629F929DC
:1003B8000708A100200AE2290310A10CFF3E031D33
:1003C800E029F9290808A100200AEC290310A10C4A
:1003D800FF3E031DEA29F9290908A100200AF62988
:1003E8000310A10CFF3E031DF4292108A3000130CE
:1003F800A3050F2A2208003A0319C829013A03194C
:10040800D229033A0319DC29013A0319E629073AE4
:100418000319F0290F2A230808000730A000A101BA
:10042800A10A01300A128A1125200A128A110630FF
:100438008312A000A101A10A01300A128A11252005
:100448000A128A1105308312A000A101A10A013005
:100458000A128A1125200A128A1104308312A00078
:10046800A101A10A01300A128A11252008000730CB
:100478000A128A11CC220A128A11F50006300A12D1
:100488008A11CC220A128A11F60005300A128A1142
:10049800CC220A128A11F70004300A128A11CC22DF
:1004A8000A128A11F8007508031D622A7608031DCE
:1004B800622A770803197808031908000130FD003B
:1004C8000800A6002408A00026080A128A11C521DF
:1004D8000A128A11A5002503031D7A2A2408A00000
:1004E800A10126080A128A11CF2008002408A000BA
:1004F800A101A10A26080A128A11CF2008000A12AF
:100508008A1111220A128A110A128A11EF220A127A
:100518008A110A128A11EB220A128A1101308312F7
:10052800A0000A128A11E5220A128A11A4010230D7
:100538000A128A11DC2208000B1CAF2AFE308B0538
:100548008312031327080319AF2A27080A128A11EE
:100558001C200A128A117C08FF007B088A007A088E
:100568008400790E8300FE0E7E0E09000A128A119D
:1005780083220A128A117D080319BF2A8312A40153
:1005880002300A128A1165220A128A11FD01BF2A55
:10059800F4007408F00001300A128A116F210A125F
:1005A8008A11003A031DDA2A0130080000300800D9
:1005B800A5002408A000A10125080A128A112520F7
:1005C80008002008031908002008A7000800FE30CA
:0A05D8008B058B1508008B17080037
:00000001FF
