:060000000A128A110E280D
:10000800FE00030EF1000A08F2007F08F3000A124E
:100018008A11B8290A128A111128F701F801F90181
:1000280083010A128A11172A1828FF0000308A0053
:100038007F0882071E280A128A11412AA000BA28BE
:100048007508031D35280130F600740A2D280310A1
:10005800F60DFF3E031D2B287608FF3A831685050B
:1000680008000130F600740A3B280310F60DFF3E25
:10007800031D392876088316850408007508031DB2
:1000880053280130F600740A4B280310F60DFF3E82
:10009800031D49287608FF3A8316860508000130B3
:1000A800F600740A59280310F60DFF3E031D572861
:1000B80076088316860408007508031D7128013028
:1000C800F600740A69280310F60DFF3E031D672821
:1000D8007608FF3A8316870508000130F600740A8F
:1000E80077280310F60DFF3E031D75287608831642
:1000F800870408007508031D8F280130F600740A6C
:1001080087280310F60DFF3E031D85287608FF3A61
:100118008316880508000130F600740A9528031034
:10012800F60DFF3E031D9328760883168804080001
:100138007508031DAD280130F600740AA5280310C0
:10014800F60DFF3E031DA3287608FF3A831689059E
:1001580008000130F600740AB3280310F60DFF3EBC
:10016800031DB12876088316890408002008003A80
:1001780003192428013A03194228033A031960286D
:10018800013A03197E28073A03199C28CB2808004E
:10019800A0005A297503031DDD280130F600740AF2
:1001A800D7280310F60DFF3E031DD52876088504D1
:1001B80008000130F600740AE3280310F60DFF3E2C
:1001C800031DE1287608FF3A850508007503031D1D
:1001D800F9280130F600740AF3280310F60DFF3EE3
:1001E800031DF1287608860408000130F600740A19
:1001F800FF280310F60DFF3E031DFD287608FF3A81
:10020800860508007503031D15290130F600740AD8
:100218000F290310F60DFF3E031D0D2976088704EC
:1002280008000130F600740A1B290310F60DFF3E82
:10023800031D19297608FF3A870508007503031D71
:1002480031290130F600740A2B290310F60DFF3E00
:10025800031D29297608880408000130F600740A6D
:1002680037290310F60DFF3E031D35297608FF3A9E
:10027800880508007503031D4D290130F600740A2E
:1002880047290310F60DFF3E031D4529760889040A
:1002980008000130F600740A53290310F60DFF3EDA
:1002A800031D51297608FF3A890508002008003AFD
:1002B8000319CE28013A0319EA28033A0319062933
:1002C800013A03192229073A03193E296B29080024
:1002D800A000A101A5290508F500740A75290310D5
:1002E800F50CFF3E031D7329A0290608F500740AC2
:1002F8007F290310F50CFF3E031D7D29A02907085F
:10030800F500740A89290310F50CFF3E031D87299F
:10031800A0290808F500740A93290310F50CFF3E7C
:10032800031D9129A0290908F500740A9D290310C5
:10033800F50CFF3E031D9B297508A1000130A1059E
:10034800B6292008003A03196F29013A03197929B7
:10035800033A03198329013A03198D29073A031926
:100368009729B629210808000B1CBC29FE308B05EB
:100378000B08F00001300310F00CFF3E031DBF29ED
:10038800701CD129FD308B0577080319D12977080E
:100398000A128A1119200A128A117308FF007208BA
:1003A8008A00710E8300FE0E7E0E0900A101023044
:1003B8000A128A1132220A128A118312A10102300A
:1003C8000A128A1129220A128A110130F4000A122B
:1003D8008A113B220A128A110A128A1146220A122B
:1003E8008A110A128A1144220800A4002208F40083
:1003F80024080A128A116C210A128A11A300230305
:10040800031D0E2A2208F400F50124080A128A1195
:10041800CC2008002208F400F501F50A24080A1285
:100428008A11CC2008000A128A11DA210A128A11CC
:10043800790803191C2A8312A20102300A128A11B0
:10044800F9210A128A11F9011C2AA2002108F400D4
:10045800F50122080A128A11CC200800A2002108FE
:10046800F400F50122080A128A11222008007408F3
:10047800031908007408F70008000130F9000800A3
:080488008B1708000B16080099
:00000001FF
